{
  "contractName": "Token",
  "abi": [
    {
      "constant": false,
      "inputs": [
        {
          "name": "store",
          "type": "address"
        },
        {
          "name": "value",
          "type": "uint64"
        }
      ],
      "name": "buySharedToken",
      "outputs": [],
      "payable": true,
      "stateMutability": "payable",
      "type": "function"
    },
    {
      "constant": false,
      "inputs": [
        {
          "name": "store",
          "type": "address"
        },
        {
          "name": "tokenCnt",
          "type": "uint64"
        }
      ],
      "name": "sellSharedToken",
      "outputs": [],
      "payable": false,
      "stateMutability": "nonpayable",
      "type": "function"
    },
    {
      "constant": true,
      "inputs": [],
      "name": "rate",
      "outputs": [
        {
          "name": "",
          "type": "uint64"
        }
      ],
      "payable": false,
      "stateMutability": "view",
      "type": "function"
    },
    {
      "constant": true,
      "inputs": [
        {
          "name": "",
          "type": "address"
        }
      ],
      "name": "outBalance",
      "outputs": [
        {
          "name": "",
          "type": "uint64"
        }
      ],
      "payable": false,
      "stateMutability": "view",
      "type": "function"
    },
    {
      "constant": false,
      "inputs": [
        {
          "name": "user",
          "type": "address"
        },
        {
          "name": "store",
          "type": "address"
        },
        {
          "name": "amount",
          "type": "uint64"
        }
      ],
      "name": "returnToken",
      "outputs": [],
      "payable": false,
      "stateMutability": "nonpayable",
      "type": "function"
    },
    {
      "constant": true,
      "inputs": [
        {
          "name": "user",
          "type": "address"
        },
        {
          "name": "store",
          "type": "address[]"
        }
      ],
      "name": "getToken",
      "outputs": [
        {
          "name": "",
          "type": "uint64[]"
        }
      ],
      "payable": false,
      "stateMutability": "view",
      "type": "function"
    },
    {
      "constant": false,
      "inputs": [
        {
          "name": "store",
          "type": "address"
        },
        {
          "name": "user",
          "type": "address"
        },
        {
          "name": "amount",
          "type": "uint64"
        }
      ],
      "name": "supplyToken",
      "outputs": [],
      "payable": false,
      "stateMutability": "nonpayable",
      "type": "function"
    },
    {
      "constant": false,
      "inputs": [
        {
          "name": "a",
          "type": "address"
        },
        {
          "name": "b",
          "type": "address"
        },
        {
          "name": "tokenCnt",
          "type": "uint64"
        }
      ],
      "name": "transferSharedToken",
      "outputs": [],
      "payable": false,
      "stateMutability": "nonpayable",
      "type": "function"
    },
    {
      "constant": true,
      "inputs": [],
      "name": "getStoreCount",
      "outputs": [
        {
          "name": "",
          "type": "uint256"
        }
      ],
      "payable": false,
      "stateMutability": "view",
      "type": "function"
    },
    {
      "constant": true,
      "inputs": [
        {
          "name": "",
          "type": "address"
        }
      ],
      "name": "addressType",
      "outputs": [
        {
          "name": "",
          "type": "uint64"
        }
      ],
      "payable": false,
      "stateMutability": "view",
      "type": "function"
    },
    {
      "constant": true,
      "inputs": [
        {
          "name": "",
          "type": "address"
        },
        {
          "name": "",
          "type": "address"
        }
      ],
      "name": "balance",
      "outputs": [
        {
          "name": "",
          "type": "uint64"
        }
      ],
      "payable": false,
      "stateMutability": "view",
      "type": "function"
    },
    {
      "constant": true,
      "inputs": [
        {
          "name": "",
          "type": "address"
        }
      ],
      "name": "storeName",
      "outputs": [
        {
          "name": "",
          "type": "string"
        }
      ],
      "payable": false,
      "stateMutability": "view",
      "type": "function"
    },
    {
      "constant": true,
      "inputs": [
        {
          "name": "",
          "type": "uint256"
        }
      ],
      "name": "storeList",
      "outputs": [
        {
          "name": "",
          "type": "address"
        }
      ],
      "payable": false,
      "stateMutability": "view",
      "type": "function"
    },
    {
      "constant": false,
      "inputs": [
        {
          "name": "store",
          "type": "address"
        },
        {
          "name": "name",
          "type": "string"
        },
        {
          "name": "value",
          "type": "uint64"
        }
      ],
      "name": "addStore",
      "outputs": [],
      "payable": false,
      "stateMutability": "nonpayable",
      "type": "function"
    },
    {
      "payable": true,
      "stateMutability": "payable",
      "type": "fallback"
    }
  ],
  "bytecode": "0x60606040526001600560006101000a81548167ffffffffffffffff021916908367ffffffffffffffff160217905550341561003957600080fd5b6118cd806100486000396000f3006060604052600436106100d0576000357c0100000000000000000000000000000000000000000000000000000000900463ffffffff16806317b1269b146100d257806324fb5013146101135780632c4e722e1461015f5780633f8938271461019c578063464b24f8146101fd5780634f6dece8146102685780637a4e328e1461033657806392eab3d5146103a157806398e8bd971461040c57806399ddb29b14610435578063b203bb9914610496578063ce8185e614610516578063d0f2e2b7146105c8578063dedc262c1461062b575b005b610111600480803573ffffffffffffffffffffffffffffffffffffffff1690602001909190803567ffffffffffffffff169060200190919050506106ba565b005b341561011e57600080fd5b61015d600480803573ffffffffffffffffffffffffffffffffffffffff1690602001909190803567ffffffffffffffff169060200190919050506107c7565b005b341561016a57600080fd5b6101726109ab565b604051808267ffffffffffffffff1667ffffffffffffffff16815260200191505060405180910390f35b34156101a757600080fd5b6101d3600480803573ffffffffffffffffffffffffffffffffffffffff169060200190919050506109c5565b604051808267ffffffffffffffff1667ffffffffffffffff16815260200191505060405180910390f35b341561020857600080fd5b610266600480803573ffffffffffffffffffffffffffffffffffffffff1690602001909190803573ffffffffffffffffffffffffffffffffffffffff1690602001909190803567ffffffffffffffff169060200190919050506109ec565b005b341561027357600080fd5b6102df600480803573ffffffffffffffffffffffffffffffffffffffff1690602001909190803590602001908201803590602001908080602002602001604051908101604052809392919081815260200183836020028082843782019150505050505091905050610cf1565b6040518080602001828103825283818151815260200191508051906020019060200280838360005b83811015610322578082015181840152602081019050610307565b505050509050019250505060405180910390f35b341561034157600080fd5b61039f600480803573ffffffffffffffffffffffffffffffffffffffff1690602001909190803573ffffffffffffffffffffffffffffffffffffffff1690602001909190803567ffffffffffffffff16906020019091905050610e9d565b005b34156103ac57600080fd5b61040a600480803573ffffffffffffffffffffffffffffffffffffffff1690602001909190803573ffffffffffffffffffffffffffffffffffffffff1690602001909190803567ffffffffffffffff169060200190919050506111a2565b005b341561041757600080fd5b61041f6113e4565b6040518082815260200191505060405180910390f35b341561044057600080fd5b61046c600480803573ffffffffffffffffffffffffffffffffffffffff169060200190919050506113f1565b604051808267ffffffffffffffff1667ffffffffffffffff16815260200191505060405180910390f35b34156104a157600080fd5b6104ec600480803573ffffffffffffffffffffffffffffffffffffffff1690602001909190803573ffffffffffffffffffffffffffffffffffffffff16906020019091905050611418565b604051808267ffffffffffffffff1667ffffffffffffffff16815260200191505060405180910390f35b341561052157600080fd5b61054d600480803573ffffffffffffffffffffffffffffffffffffffff1690602001909190505061144e565b6040518080602001828103825283818151815260200191508051906020019080838360005b8381101561058d578082015181840152602081019050610572565b50505050905090810190601f1680156105ba5780820380516001836020036101000a031916815260200191505b509250505060405180910390f35b34156105d357600080fd5b6105e960048080359060200190919050506114fe565b604051808273ffffffffffffffffffffffffffffffffffffffff1673ffffffffffffffffffffffffffffffffffffffff16815260200191505060405180910390f35b341561063657600080fd5b6106b8600480803573ffffffffffffffffffffffffffffffffffffffff1690602001909190803590602001908201803590602001908080601f0160208091040260200160405190810160405280939291908181526020018383808284378201915050505050509190803567ffffffffffffffff1690602001909190505061153d565b005b60006001600260008573ffffffffffffffffffffffffffffffffffffffff1673ffffffffffffffffffffffffffffffffffffffff16815260200190815260200160002060009054906101000a900467ffffffffffffffff1667ffffffffffffffff1614151561072857600080fd5b600560009054906101000a900467ffffffffffffffff168202905080600160008573ffffffffffffffffffffffffffffffffffffffff1673ffffffffffffffffffffffffffffffffffffffff16815260200190815260200160002060008282829054906101000a900467ffffffffffffffff160192506101000a81548167ffffffffffffffff021916908367ffffffffffffffff160217905550505050565b6001600260008473ffffffffffffffffffffffffffffffffffffffff1673ffffffffffffffffffffffffffffffffffffffff16815260200190815260200160002060009054906101000a900467ffffffffffffffff1667ffffffffffffffff1614151561083357600080fd5b8067ffffffffffffffff16600160008473ffffffffffffffffffffffffffffffffffffffff1673ffffffffffffffffffffffffffffffffffffffff16815260200190815260200160002060009054906101000a900467ffffffffffffffff1667ffffffffffffffff16101515156108a957600080fd5b80600160008473ffffffffffffffffffffffffffffffffffffffff1673ffffffffffffffffffffffffffffffffffffffff16815260200190815260200160002060008282829054906101000a900467ffffffffffffffff160392506101000a81548167ffffffffffffffff021916908367ffffffffffffffff1602179055508173ffffffffffffffffffffffffffffffffffffffff166108fc600560009054906101000a900467ffffffffffffffff1667ffffffffffffffff168367ffffffffffffffff1681151561097757fe5b0467ffffffffffffffff169081150290604051600060405180830381858888f1935050505015156109a757600080fd5b5050565b600560009054906101000a900467ffffffffffffffff1681565b60016020528060005260406000206000915054906101000a900467ffffffffffffffff1681565b6000600260008573ffffffffffffffffffffffffffffffffffffffff1673ffffffffffffffffffffffffffffffffffffffff16815260200190815260200160002060009054906101000a900467ffffffffffffffff1667ffffffffffffffff16141515610a5857600080fd5b6001600260008473ffffffffffffffffffffffffffffffffffffffff1673ffffffffffffffffffffffffffffffffffffffff16815260200190815260200160002060009054906101000a900467ffffffffffffffff1667ffffffffffffffff16141515610ac457600080fd5b8067ffffffffffffffff166000808473ffffffffffffffffffffffffffffffffffffffff1673ffffffffffffffffffffffffffffffffffffffff16815260200190815260200160002060008573ffffffffffffffffffffffffffffffffffffffff1673ffffffffffffffffffffffffffffffffffffffff16815260200190815260200160002060009054906101000a900467ffffffffffffffff1667ffffffffffffffff1610151515610b7657600080fd5b806000808473ffffffffffffffffffffffffffffffffffffffff1673ffffffffffffffffffffffffffffffffffffffff16815260200190815260200160002060008473ffffffffffffffffffffffffffffffffffffffff1673ffffffffffffffffffffffffffffffffffffffff16815260200190815260200160002060008282829054906101000a900467ffffffffffffffff160192506101000a81548167ffffffffffffffff021916908367ffffffffffffffff160217905550806000808473ffffffffffffffffffffffffffffffffffffffff1673ffffffffffffffffffffffffffffffffffffffff16815260200190815260200160002060008573ffffffffffffffffffffffffffffffffffffffff1673ffffffffffffffffffffffffffffffffffffffff16815260200190815260200160002060008282829054906101000a900467ffffffffffffffff160392506101000a81548167ffffffffffffffff021916908367ffffffffffffffff160217905550505050565b610cf9611782565b600080600090505b8351811015610e0f57818054806001018281610d1d9190611796565b91600052602060002090600491828204019190066008026000808886815181101515610d4557fe5b9060200190602002015173ffffffffffffffffffffffffffffffffffffffff1673ffffffffffffffffffffffffffffffffffffffff16815260200190815260200160002060008973ffffffffffffffffffffffffffffffffffffffff1673ffffffffffffffffffffffffffffffffffffffff16815260200190815260200160002060009054906101000a900467ffffffffffffffff16909190916101000a81548167ffffffffffffffff021916908367ffffffffffffffff16021790555050806001019050610d01565b81805480602002602001604051908101604052809291908181526020018280548015610e8e57602002820191906000526020600020906000905b82829054906101000a900467ffffffffffffffff1667ffffffffffffffff1681526020019060080190602082600701049283019260010382029150808411610e495790505b50505050509250505092915050565b6001600260008573ffffffffffffffffffffffffffffffffffffffff1673ffffffffffffffffffffffffffffffffffffffff16815260200190815260200160002060009054906101000a900467ffffffffffffffff1667ffffffffffffffff16141515610f0957600080fd5b6000600260008473ffffffffffffffffffffffffffffffffffffffff1673ffffffffffffffffffffffffffffffffffffffff16815260200190815260200160002060009054906101000a900467ffffffffffffffff1667ffffffffffffffff16141515610f7557600080fd5b8067ffffffffffffffff166000808573ffffffffffffffffffffffffffffffffffffffff1673ffffffffffffffffffffffffffffffffffffffff16815260200190815260200160002060008573ffffffffffffffffffffffffffffffffffffffff1673ffffffffffffffffffffffffffffffffffffffff16815260200190815260200160002060009054906101000a900467ffffffffffffffff1667ffffffffffffffff161015151561102757600080fd5b806000808573ffffffffffffffffffffffffffffffffffffffff1673ffffffffffffffffffffffffffffffffffffffff16815260200190815260200160002060008573ffffffffffffffffffffffffffffffffffffffff1673ffffffffffffffffffffffffffffffffffffffff16815260200190815260200160002060008282829054906101000a900467ffffffffffffffff160392506101000a81548167ffffffffffffffff021916908367ffffffffffffffff160217905550806000808573ffffffffffffffffffffffffffffffffffffffff1673ffffffffffffffffffffffffffffffffffffffff16815260200190815260200160002060008473ffffffffffffffffffffffffffffffffffffffff1673ffffffffffffffffffffffffffffffffffffffff16815260200190815260200160002060008282829054906101000a900467ffffffffffffffff160192506101000a81548167ffffffffffffffff021916908367ffffffffffffffff160217905550505050565b600260008373ffffffffffffffffffffffffffffffffffffffff1673ffffffffffffffffffffffffffffffffffffffff16815260200190815260200160002060009054906101000a900467ffffffffffffffff1667ffffffffffffffff16600260008573ffffffffffffffffffffffffffffffffffffffff1673ffffffffffffffffffffffffffffffffffffffff16815260200190815260200160002060009054906101000a900467ffffffffffffffff1667ffffffffffffffff161415151561126b57600080fd5b8067ffffffffffffffff16600160008573ffffffffffffffffffffffffffffffffffffffff1673ffffffffffffffffffffffffffffffffffffffff16815260200190815260200160002060009054906101000a900467ffffffffffffffff1667ffffffffffffffff16101515156112e157600080fd5b80600160008573ffffffffffffffffffffffffffffffffffffffff1673ffffffffffffffffffffffffffffffffffffffff16815260200190815260200160002060008282829054906101000a900467ffffffffffffffff160392506101000a81548167ffffffffffffffff021916908367ffffffffffffffff16021790555080600160008473ffffffffffffffffffffffffffffffffffffffff1673ffffffffffffffffffffffffffffffffffffffff16815260200190815260200160002060008282829054906101000a900467ffffffffffffffff160192506101000a81548167ffffffffffffffff021916908367ffffffffffffffff160217905550505050565b6000600380549050905090565b60026020528060005260406000206000915054906101000a900467ffffffffffffffff1681565b60006020528160005260406000206020528060005260406000206000915091509054906101000a900467ffffffffffffffff1681565b60046020528060005260406000206000915090508054600181600116156101000203166002900480601f0160208091040260200160405190810160405280929190818152602001828054600181600116156101000203166002900480156114f65780601f106114cb576101008083540402835291602001916114f6565b820191906000526020600020905b8154815290600101906020018083116114d957829003601f168201915b505050505081565b60038181548110151561150d57fe5b90600052602060002090016000915054906101000a900473ffffffffffffffffffffffffffffffffffffffff1681565b6000600260008573ffffffffffffffffffffffffffffffffffffffff1673ffffffffffffffffffffffffffffffffffffffff16815260200190815260200160002060009054906101000a900467ffffffffffffffff1667ffffffffffffffff16141561165b57600380548060010182816115b791906117d0565b9160005260206000209001600085909190916101000a81548173ffffffffffffffffffffffffffffffffffffffff021916908373ffffffffffffffffffffffffffffffffffffffff1602179055505081600460008573ffffffffffffffffffffffffffffffffffffffff1673ffffffffffffffffffffffffffffffffffffffff16815260200190815260200160002090805190602001906116599291906117fc565b505b6001600260008573ffffffffffffffffffffffffffffffffffffffff1673ffffffffffffffffffffffffffffffffffffffff16815260200190815260200160002060006101000a81548167ffffffffffffffff021916908367ffffffffffffffff160217905550806000808573ffffffffffffffffffffffffffffffffffffffff1673ffffffffffffffffffffffffffffffffffffffff16815260200190815260200160002060008573ffffffffffffffffffffffffffffffffffffffff1673ffffffffffffffffffffffffffffffffffffffff16815260200190815260200160002060008282829054906101000a900467ffffffffffffffff160192506101000a81548167ffffffffffffffff021916908367ffffffffffffffff160217905550505050565b602060405190810160405280600081525090565b8154818355818115116117cb5760030160049004816003016004900483600052602060002091820191016117ca919061187c565b5b505050565b8154818355818115116117f7578183600052602060002091820191016117f6919061187c565b5b505050565b828054600181600116156101000203166002900490600052602060002090601f016020900481019282601f1061183d57805160ff191683800117855561186b565b8280016001018555821561186b579182015b8281111561186a57825182559160200191906001019061184f565b5b509050611878919061187c565b5090565b61189e91905b8082111561189a576000816000905550600101611882565b5090565b905600a165627a7a72305820d77789d1d779a16d49cde8d7350b47df8204358bd3f238acea6fc82638704e620029",
  "source": "pragma solidity ^0.4.0;\n\ncontract Token {\n    mapping (address => mapping (address => uint64)) public balance;\n    mapping (address => uint64) public outBalance;\n    mapping (address => uint64) public addressType;\n\n    address[] public storeList;\n    mapping (address => string) public storeName;\n    uint64 public rate = 1;\n\n    function getStoreCount() constant public returns(uint256) {\n        return storeList.length;\n    }\n\n    function addStore(address store, string name, uint64 value) public {\n        if (addressType[store] == 0) {\n            storeList.push(store);\n            storeName[store] = name;\n        }\n        addressType[store] = 1;\n        balance[store][store] += value;\n    }\n\n    function supplyToken(address store, address user, uint64 amount) public {        \n        require(addressType[store] == 1);\n        require(addressType[user] == 0);\n        require(balance[store][store] >= amount);\n        balance[store][store] -= amount;\n        balance[store][user] += amount;\n    }\n\n    function returnToken(address user, address store, uint64 amount) public {\n        require(addressType[user] == 0);\n        require(addressType[store] == 1);\n        require(balance[store][user] >= amount);\n        balance[store][store] += amount;\n        balance[store][user] -= amount;\n    }\n\n    function getToken(address user, address[] store) constant public returns(uint64[]) {\n        uint64[] a;\n        for (uint256 i = 0; i < store.length; ++i) {\n            a.push(balance[store[i]][user]);\n        }\n        return a;\n    }\n\n    function buySharedToken(address store, uint64 value) payable public {\n        require(addressType[store] == 1);\n        uint64 amount = value * rate;\n        outBalance[store] += amount;\n    }\n\n    function transferSharedToken(address a, address b, uint64 tokenCnt) public {\n        require(addressType[a] != addressType[b]);\n        require(outBalance[a] >= tokenCnt);\n        outBalance[a] -= tokenCnt;\n        outBalance[b] += tokenCnt;\n    }\n\n    function sellSharedToken(address store, uint64 tokenCnt) public {\n        require(addressType[store] == 1);\n        require(outBalance[store] >= tokenCnt);\n        outBalance[store] -= tokenCnt;\n        store.transfer(tokenCnt / rate);\n    }\n\n    function () payable public {\n        \n    }\n}",
  "sourcePath": "/home/abcdef6199/Downloads/blockathon2017-dormir/contracts/contracts/Token.sol",
  "compiler": {
    "name": "solc",
    "version": "0.4.18+commit.9cf6e910.Emscripten.clang"
  },
  "schemaVersion": "1.0.1",
  "updatedAt": "2017-11-25T11:08:54.604Z"
}